:100000000C9498020C94B5020C94B5020C94B502B1
:100010000C94B5020C94B5020C94B5020C94B50284
:100020000C94B5020C94B5020C9493260C94CE2635
:100030000C94B5020C94B5020C94B5020C94B50264
:100040000C94B5020C94B5020C94B5020C94B50254
:100050000C944A030C94B5020C94B5020C94FE2245
:100060000C94B5020C94B5020C94B5020C94B50234
:100070000C94B5020C94B5020C94B5020C94B50224
:100080000C94B5020C94B5020C94B5020C94D202F7
:100090000C94B5020C94B5020C94B5020C94B50204
:1000A0000C94B5020C94B5020C94B50228262526B2
:1000B00022261F261C2619261626132610260D2654
:1000C0000A26072604260126FE25FB25F825F52508
:1000D000F225EF25EC25E925E625E325E025DD25BC
:1000E000DA25D725D425D125CE25CB25C825C5256C
:1000F000C225BF25BC25B925B625B325B025AD251C
:10010000AA25A725A425A1259E259B2598259525CB
:1001100092258F258C2589258625832580257D257B
:100120007A257725742571256E256B256825084A63
:10013000D73B3BCE016E84BCBFFDC12F3D6C7431FB
:100140009ABD56833DDA3D00C77F11BED9E4BB4C52
:100150003E916BAAAABE000000803F05A84CCDB21C
:10016000D44EB93836A9020C50B9918688083CA6FD
:10017000AAAA2ABE000000803F00010000AD0112C3
:1001800000020000BF01430003000002020401035B
:100190000904060214020309041C021603030904DD
:1001A00034020C0001C112018036018136120100B7
:1001B0000202000010C0167A0400010102030109C6
:1001C000024300020100C0320904000001020201E2
:1001D0000005240010010524010101042402060584
:1001E00024060001070582031000400904010002F3
:1001F0000A000000070503024000000705840240D2
:10020000000004030904140359006F007500720014
:1002100020004E0061006D006500000016035500CF
:100220005300420020005300650072006900610025
:100230006C0000000C033100320033003400350044
:100240000000000000000000005F00000007000741
:1002500000147F147F14242A7F2A12231308646257
:1002600036495522500005030000001C22410000C1
:1002700041221C0014083E081408083E08080050DB
:10028000300000080808080800606000002010081E
:1002900004023E5149453E00427F400042615149BF
:1002A000462141454B311814127F102745454539E9
:1002B0003C4A494930017109050336494949360626
:1002C0004949291E00363600000056360000081441
:1002D0002241001414141414004122140802015184
:1002E0000906324979413E7E1111117E7F49494903
:1002F000363E414141227F4141221C7F49494941CB
:100300007F090909013E4149497A7F0808087F00B1
:10031000417F41002040413F017F081422417F403E
:100320004040407F020C027F7F0408107F3E414125
:10033000413E7F090909063E4151215E7F09192985
:1003400046464949493101017F01013F4040403F54
:100350001F2040201F3F4038403F631408146307AC
:10036000087008076151494543007F41410002047C
:100370000810200041417F00040201020440404077
:100380004040000102040020545454787F48444403
:10039000383844444420384444487F38545454182E
:1003A000087E0901020C5252523E7F080404780074
:1003B000447D40002040443D007F1028440000411F
:1003C0007F40007C041804787C0804047838444496
:1003D00044387C14141408081414187C7C08040491
:1003E000084854545420043F4440203C4040207C62
:1003F0001C2040201C3C4030403C44281028440C29
:100400005050503C4464544C4400083641000000B5
:100410007F000000413608001008081008784641A7
:1004200046786E616E00696E660000407A10F35A7D
:1004300000A0724E18090010A5D4E80000E8764824
:10044000170000E40B54020000CA9A3B000000E1D0
:10045000F505000080969800000040420F00000063
:10046000A08601000000102700000000E803000043
:1004700000006400000000000A000000000001000D
:10048000000000002C76D888DC674F0823DFC1DF2E
:10049000AE59E1B1B796E5E3E453C63AE651997631
:1004A00096E8E6C28426EB898C9B62ED407C6FFC6B
:1004B000EFBC9C9F40F2BAA56FA5F490055A2AF7AD
:1004C0005C936B6CF9676DC11BFCE0E40D47FEF5B6
:1004D00020E6B500D0ED902E03009435770500801E
:1004E000841E080000204E0A000000C80C3333337D
:1004F000330F986E12831141EF8D2114893BE6551D
:1005000016CFFEE6DB18D1844B381BF77C1D901DFF
:10051000A4BBE424203284725E228100C9F124EC61
:10052000A1E53D276364696E6F70737578585B0051
:1005300011241FBECFEFDAE0DEBFCDBF13E0A0E095
:10054000B1E0E0ECF0E702C005900D92A23BB107EC
:10055000D9F717E0A2EBB3E001C01D92AF3DB107A0
:10056000E1F70E9439240C945E380C9400008FB19E
:100570009091B703990F9E70829586958170982B04
:100580009093B7039F3049F48091B803982F81E08E
:100590007D99FCCF9093B8030895992311F410929C
:1005A000B80308951F920F920FB60F9211242F9344
:1005B0003F934F935F936F937F938F939F93AF93EB
:1005C000BF93EF93FF938091B303882349F0809109
:1005D000C0039091C10301969093C1038093C0031F
:1005E0000E94B702FF91EF91BF91AF919F918F91C0
:1005F0007F916F915F914F913F912F910F900FBE1F
:100600000F901F90189599B18091BD03880F82704B
:100610009170892B8093BD03833011F484E6089593
:1006200093B18091BC03880F8270991F9927991FFD
:10063000892B8093BC03833011F483E7089593B131
:100640008091BE03880F827096959170892B80935C
:10065000BE03833011F481E6089599B18091BB0304
:10066000880F827096959170892B8093BB0383309D
:1006700011F487E7089593B18091BF03880F8270CA
:100680009170892B8093BF03833011F080E208952D
:1006900086E608951F920F920FB60F9211248F9342
:1006A0009F938091E2058823D9F48091C2039091B1
:1006B000C30301969093C3038093C2038091C40344
:1006C0009091C50301969093C5038093C4038091D4
:1006D000C6039091C70301969093C7038093C60306
:1006E0009F918F910F900FBE0F901F9018950F93B1
:1006F0001F93FC017183608353834283260F371F4E
:1007000035832483040F151F178306831F910F91D0
:10071000089551982198509827982098089514BCCE
:1007200081E085BD80936E0008951092800083E083
:100730008093810081E080936F0008951092900073
:1007400082E08093910081E0809371000895CF92C0
:10075000DF92EF92FF920F931F9360911F057091AC
:10076000200580912105909122050E94752F7B0123
:100770008C016B017093BD046093BC0460912305F0
:100780007091240580912505909126050E94752F72
:100790009B017093BF046093BE047093C204609386
:1007A000C104F092C404E092C304295F3F4F309328
:1007B000C6042093C50487E090E0C80ED91ED092ED
:1007C000C804C092C7041F910F91FF90EF90DF9073
:1007D000CF9008952F923F924F925F926F927F92A7
:1007E0008F929F92AF92BF92CF92DF92EF92FF9241
:1007F0000F931F932C016A011901882777FD8095BB
:10080000982F0E94A82F4B015C01F2016083718335
:1008100082839383EE24D7FCE094FE2CC701B601BB
:100820000E94A82FF2016483758386839783808A50
:10083000918AA28AB38A648B758B868B978B0E9470
:10084000752F6B017C013B01C501B4010E94752F1E
:100850009B01F201D18EC08E738F628F600E711E6C
:10086000758E648E220D331D378F268F1F910F9149
:10087000FF90EF90DF90CF90BF90AF909F908F90C0
:100880007F906F905F904F903F902F9008952F92A0
:100890003F924F925F926F927F928F929F92AF9210
:1008A000BF92CF92DF92EF92FF920F931F93DF934D
:1008B000CF9300D000D000D0CDB7DEB76B013A01A6
:1008C00019011A83098322E835E03E832D835C01F8
:1008D000AA0CBB1CA80EB91EC50143E0880F991FC6
:1008E0004A95E1F7820F931F9C838B83EE24D7FCFC
:1008F000E094FE2CC701B6010E94A82FEB81FC8179
:100900006083718382839383850193E0000F111FBD
:100910009A95E1F70C5F1F4F2D813E81020F131F47
:10092000882477FC8094982CC401B3010E94A82FDE
:10093000F80160837183828393830894A11CB11CA6
:1009400083E0AA0CBB1C8A95E1F72D813E812A0D1C
:100950003B1D3E832D83442437FC4094542CC2011C
:10096000B1010E94A82FED81FE8160837183828393
:10097000938329813A81B901882777FD8095982F43
:100980000E94A82FEB81FC816487758786879787F3
:1009900026960FB6F894DEBF0FBECDBFCF91DF9184
:1009A0001F910F91FF90EF90DF90CF90BF90AF908D
:1009B0009F908F907F906F905F904F903F902F907F
:1009C0000895DC01FB0116962D913C9117978281C9
:1009D00093818217930704F52681378112968D91B2
:1009E0009C91139782179307BCF42D913C9111971A
:1009F00084819581281739077CF440E050E02081FC
:100A0000318114968D919C9115972817390714F40C
:100A100041E050E09A0102C020E030E0C9010895B1
:100A200081E090E09093B9048093B80485E090E071
:100A300090930B0580930A051092E4051092E3054C
:100A40001092E6051092E50510928C0410928B042A
:100A500080E090E0A0E0B0E08093B2049093B30413
:100A6000A093B404B093B5041092E2051092B104BF
:100A70001092B7041092B6041092BB041092BA04FC
:100A80001092120508952F923F924F925F926F92AB
:100A90007F928F929F92AF92BF92CF92DF92EF920E
:100AA000FF920F931F938C011B012A01FC016088A8
:100AB000718882889388608271828282938264893D
:100AC00075898689978964837583868397830E9455
:100AD000752F6B017C015B01C401B3010E94752F6E
:100AE0009B01F801D18EC08E738F628FA40CB51C50
:100AF000B58EA48E220D331D378F268F1F910F9137
:100B0000FF90EF90DF90CF90BF90AF909F908F902D
:100B10007F906F905F904F903F902F900895AC0121
:100B200097FD29C077FD27C08435910524F56033F2
:100B300071050CF5CB0173E0959587957A95E1F7F2
:100B400090E024E530E0829FF001839FF00D929FBA
:100B5000F00D1124E40FF51FE951FA4F8081282F81
:100B600030E0862F877002C0359527958A95E2F789
:100B70002170307002C020E030E0C90108952F924A
:100B80003F924F925F926F927F928F929F92AF921D
:100B9000BF92CF92DF92EF92FF920F931F93DF935A
:100BA000CF9300D000D0CDB7DEB79A8389836B0195
:100BB0001A012901380107E010E087EE95E0C80E20
:100BC000D91E23C0E981FA81AB81BC81EA0FFB1FEA
:100BD000808190E088219921892B41F0F701808163
:100BE00090E0B5010E948F05892B49F58B819C818E
:100BF00001969C838B830894E11CF11CAB81BC8122
:100C0000A615B705FCF20150104087E090E0801B6C
:100C1000910B841595051CF021E030E012C0E1E055
:100C20008E2E912C002E02C0880C991C0A94E2F79B
:100C300076011C821B825801A20CB31CDFCF20E07E
:100C400030E0C9010F900F900F900F90CF91DF917E
:100C50001F910F91FF90EF90DF90CF90BF90AF90DA
:100C60009F908F907F906F905F904F903F902F90CC
:100C700008958091E205882361F481E08093E20584
:100C80008091C0039091C10390930D0580930C0552
:100C900008951092E20580910C0590910D059093B6
:100CA000C1038093C00308952F923F924F925F92A9
:100CB0006F927F928F929F92AF92BF92CF92DF926C
:100CC000EF92FF920F931F93DF93CF93CDB7DEB7D1
:100CD00028970FB6F894DEBF0FBECDBFF2E82F2ED7
:100CE000F5E03F2EF10160817181828193810E9444
:100CF000803169837A838B839C83F1016481758160
:100D0000868197810E9480315B016C01F1016085D1
:100D10007185828593850E9480317B018C01F10170
:100D200064857585868597850E9480312B013C01FD
:100D300069817A818B819C810E94752F6D837E836E
:100D40008F839887C601B5010E94752F4B015C0106
:100D5000C801B7010E94752F6B017C01C301B2016C
:100D60000E94752F8B019C018D819E81B401A6018B
:100D7000980101E00E94972888E190E0280E391E32
:100D800092EE291695E0390609F0ACCF28960FB6F9
:100D9000F894DEBF0FBECDBFCF91DF911F910F91B1
:100DA000FF90EF90DF90CF90BF90AF909F908F908B
:100DB0007F906F905F904F903F902F900895EF92AB
:100DC000FF920F931F9380E090E0A0E9B1E480933D
:100DD000820590938305A0938405B093850580E0F8
:100DE00090E0A0E7B1E48093860590938705A093F7
:100DF0008805B093890580E090E0A0E5B1E4809398
:100E00008A0590938B05A0938C05B0938D050F2ECA
:100E1000F0E0EF2EF0E0FF2EF8EC0F2FF1E41F2FA3
:100E2000F02DE0928E05F0928F05009390051093BF
:100E30009105E0929A05F0929B0500939C05109312
:100E40009D0580E090E0ACE0B2E480939E05909335
:100E50009F05A093A005B093A105E092A205F09292
:100E6000A3050093A4051093A50580E090E0A4E3FA
:100E7000B2E48093A6059093A705A093A805B0932C
:100E8000A9058093B2059093B305A093B405B093E0
:100E9000B50520E030E040E251E42093B605309300
:100EA000B7054093B8055093B90580E090E0A0E7FE
:100EB000B2E48093BA059093BB05A093BC05B093B0
:100EC000BD052093BE053093BF054093C0055093E8
:100ED000C10580E090E0A8E6B2E48093CA05909353
:100EE000CB05A093CC05B093CD05E092CE05F09252
:100EF000CF050093D0051093D10580E090E0A0E9E4
:100F0000B2E48093D2059093D305A093D405B09317
:100F1000D50580E090E0A0EFB1E48093D6059093F2
:100F2000D705A093D805B093D90583E08093B50386
:100F30000E9454061F910F91FF90EF900895AF9279
:100F4000BF92CF92DF92EF92FF920F931F93CF93B6
:100F5000DF93C7EDD3E08885882309F16881798123
:100F60008A819B810E9480315B016C016C817D8153
:100F70008E819F810E9480317B018C01C601B50169
:100F80000E94752F5B016C01C801B7010E94752F8B
:100F90009B01AC01C501B90141E00E945C28299682
:100FA00084E0CB38D807B9F6DF91CF911F910F912C
:100FB000FF90EF90DF90CF90BF90AF9008955F9239
:100FC0006F927F928F929F92AF92BF92CF92DF9259
:100FD000EF92FF920F931F93CF93DF934C015A012F
:100FE000522E7B0107E010E0A1E06A2E712C1DC09B
:100FF000F401EC0FFD1F808190E08C219D21892B55
:1010000039F0BE016A0D7B1DC701452D0E945C2889
:101010002196C830D10561F7015010400894E11CB9
:10102000F11C8FEF0F3F180751F06301002E02C033
:10103000CC0CDD1C0A94E2F7C0E0D0E0D9CFDF9100
:10104000CF911F910F91FF90EF90DF90CF90BF90C5
:10105000AF909F908F907F906F905F900895FC016C
:101060009B018481813041F460817181428153818F
:10107000C90121E00E94DF070895CF92DF92EF922D
:10108000FF920F931F93CF93DF936B017A01EC01D3
:1010900000E010E00EC08C81882341F068817981E6
:1010A0004A815B81C60121E00E94DF070F5F1F4F6D
:1010B0002D960E151F057CF3DF91CF911F910F9197
:1010C000FF90EF90DF90CF9008950E9454068FE339
:1010D00095E064E873E045E050E00E943D0889EC4B
:1010E00094E06CE873E045E050E00E943D088CEB32
:1010F00094E06CE973E00E942F088EE095E064E9CB
:1011000073E00E942F080895AF92BF92CF92DF92B2
:10111000EF92FF920F931F93CF93DF9360911F0580
:101120007091200580912105909122050E948031C7
:101130005B016C0160912305709124058091250568
:10114000909126050E9480317B018C01C601B5017A
:101150000E94752F5B016C01C801B7010E94752FB9
:101160009B01AC018CE693E0B501A90121E00E944E
:10117000DF078091D0039091D103892B19F4C4E744
:10118000D3E002C0CCE7D3E0609191047091920467
:1011900080919304909194040E94752F7B018C019F
:1011A00060919504709196048091970490919804B1
:1011B0000E94752F9B01AC01CE01B701A90121E06E
:1011C0000E94DF07DF91CF911F910F91FF90EF9069
:1011D000DF90CF90BF90AF900895AF92BF92CF9223
:1011E000DF92EF92FF920F931F93CF93DF93809143
:1011F000D0039091D103892B19F4C4E7D3E002C046
:10120000CCE7D3E0609191047091920480919304B3
:10121000909194040E9480315B016C01609195046F
:101220007091960480919704909198040E94803167
:101230007B018C01C601B5010E94752F5B016C0119
:10124000C801B7010E94752F9B01AC01CE01B50109
:10125000A90120E00E94DF078091D0039091D10383
:10126000892B19F465E070E002C068E070E08091BD
:10127000D0039091D103892B19F447E050E002C0CC
:1012800048E050E081E994E00E94430560911F0529
:101290007091200580912105909122050E94803156
:1012A0005B016C01609123057091240580912505F7
:1012B000909126050E9480317B018C01C601B50109
:1012C0000E94752F5B016C01C801B7010E94752F48
:1012D0009B01AC018CE693E0B501A90120E00E94DE
:1012E000DF0760916203409163038FE195E070E056
:1012F00050E00E9443050E948408DF91CF911F9126
:101300000F91FF90EF90DF90CF90BF90AF90089536
:101310002F923F924F925F926F927F928F929F9205
:10132000AF92BF92CF92DF92EF92FF920F931F93F3
:10133000CF93DF935C016B013A0149019C01241BAF
:10134000350BCB0188199909889FB001899F700DD1
:10135000989F700D1124C901889F9001899F300DBD
:10136000989F300D1124620F731F882777FD809599
:10137000982F0E94A82F0E94AA311B012C01A01AAD
:10138000B10ACE18DF08CC9CB001CD9C700DDC9C5E
:10139000700D1124AA9C9001AB9C300DBA9C300DAD
:1013A0001124620F731F882777FD8095982F0E9464
:1013B000A82F0E94AA315B016C01601A710A8E1875
:1013C0009F08889CB001899C700D989C700D112419
:1013D000669C9001679C300D769C300D1124620F45
:1013E000731F882777FD8095982F0E94A82F0E9451
:1013F000AA313B014C01C201B101A60195010E9435
:101400007A2E5B016C01C401B301A60195010E9413
:10141000792E7B018C0120E030E040E050E00E941A
:10142000062F88234CF4C0E0D0E0C401B301A6012C
:1014300095010E947A2E04C0C0E0D0E0C801B70137
:1014400020E030E040E050E00E94062F882311F4B5
:10145000C1E0D0E0CE01DF91CF911F910F91FF90BD
:10146000EF90DF90CF90BF90AF909F908F907F9044
:101470006F905F904F903F902F9008952F923F92E2
:101480004F925F926F927F928F929F92AF92BF9294
:10149000CF92DF92EF92FF920F931F93DF93CF9340
:1014A000CDB7DEB728970FB6F894DEBF0FBECDBF1D
:1014B0009A8389831B0182E895E098878F83EF8167
:1014C000F88560817181828193810E94752F6B8381
:1014D0007C838D839E83EF81F8856481758186810D
:1014E00097810E94752F2B013C01EF81F885608563
:1014F0007185828593850E94752F4B015C01EF8178
:10150000F88564857585868597850E94752F6B01A2
:101510007C0189819A81B1014B815C8192018401B6
:1015200076010E948809892B19F021E030E00BC078
:101530008F819885489698878F83825E954009F0C1
:10154000BECF20E030E0C90128960FB6F894DEBF88
:101550000FBECDBFCF91DF911F910F91FF90EF9004
:10156000DF90CF90BF90AF909F908F907F906F90C3
:101570005F904F903F902F900895CF93DF93EC01B1
:101580000E94652488838A30910521F021968F5F1F
:101590009F4FB1F7DF91CF910895CF92DF92EF92F5
:1015A000FF920F931F93CF93DF93CC24DD240E94EF
:1015B000CD326DE470E00E941E327C010894E11C83
:1015C000F11C0E94CD326CE170E00E941E32EC01F1
:1015D0002A9660910E0570910F054091100550916B
:1015E000110584E993E025E030E008E010E00E9476
:1015F000BF05892B39F40894C11CD11C8AE0C81698
:10160000D104A9F6F0920F05E0920E05D0931105D2
:10161000C0931005D0931405C0931305F0921605DE
:10162000E09215052896D0931805C093170585E01C
:1016300090E0E80EF91EF0921A05E0921905DF918C
:10164000CF911F910F91FF90EF90DF90CF90089571
:10165000AF92BF92CF92DF92EF92FF920F931F93C0
:10166000CF93DF936C01EE24FF248DE090E0C89EC1
:10167000E001C99ED00DD89ED00D1124C15CDA4F77
:10168000B2E0AB2EB12CAC0EBD1E0E94CD326DE48B
:1016900070E00E941E320196998388830E94CD32A9
:1016A00061E270E00E941E32AC01475F5F4FF501BE
:1016B000518340836881798184E893E025E030E0BC
:1016C00005E010E00E94BF05892B39F40894E11C65
:1016D000F11CFAE0EF16F104C1F68DE090E0C89E2F
:1016E000F001C99EF00DD89EF00D1124E15CFA4F77
:1016F00082819381208131819683858330872783FE
:101700000596928781872B5F3F4F34872387DF9130
:10171000CF911F910F91FF90EF90DF90CF90BF90EE
:10172000AF900895CF92DF92EF92FF920F931F93A5
:10173000CF93DF936091C2037091C303882777FD35
:101740008095982F0E94A82F20E034E244E750E4CF
:101750000E9412318823A4F18091B6049091B704BD
:10176000059774F58091E205882351F5E3E4F5E0EF
:1017700020E030E08081882359F58DE090E0289FBB
:10178000F001299FF00D389FF00D1124E15CFA4F14
:1017900081E08483608171814281538184E893E098
:1017A00021E00E94DF078091B6049091B704019672
:1017B0009093B7048093B6041092C3031092C203AF
:1017C000C3E4D5E0EE24FF241DE0C12ED12C07C0D8
:1017D0002F5F3F4F3D962530310561F6F1CF88816F
:1017E000882309F447C0EC9C8001ED9C100DFC9C03
:1017F000100D1124B8016C5B7A4F89EA94E00E94C5
:10180000E104892BB9F18091E3059091E4050196FB
:101810009093E4058093E3058091B6049091B7041A
:1018200001979093B7048093B604015C1A4FF801B6
:10183000608171814281538184E893E020E00E94BD
:10184000DF07F8011482C7010E94280B1092C3031E
:101850001092C2038091E3059091E40505979CF0F6
:1018600080911205882379F40E94CD0A81E080934B
:10187000120509C00894E11CF11C2D96F5E0EF1645
:10188000F10409F0ACCFDF91CF911F910F91FF9040
:10189000EF90DF90CF900895EF92FF920F931F93F8
:1018A000CF93DF931092B5030FE315E0C9ECD4E0BA
:1018B000EE24FF24F8018481882349F0608171813E
:1018C0004281538184E893E020E00E94DF07C70152
:1018D0000E94280BF80114828C81882349F06881CA
:1018E00079814A815B818CE893E020E00E94DF07E8
:1018F0001C820894E11CF11C035F1F4F2D96F5E03C
:10190000EF16F104B9F6C7EDD3E088858823A9F076
:10191000688179818A819B810E94752F7B018C016E
:101920006C817D818E819F810E94752F9B01AC010E
:10193000C701B90140E00E945C281886299684E01E
:10194000CB38D80711F780911205882369F0609190
:101950000E0570910F05409110055091110584E915
:1019600093E020E00E94DF07109212058091C004EE
:10197000882369F06091BC047091BD044091BE045D
:101980005091BF048CE993E020E00E94DF071092A1
:10199000C004DF91CF911F910F91FF90EF900895B8
:1019A000AF92BF92CF92DF92EF92FF920F931F936D
:1019B0000E94CD32AA2797FDA095BA2FBC01CD0178
:1019C0000E94A82F2BED3FE049E450E40E941D3116
:1019D0009B01AC010E947A2E20E03EEF4FEF56E4CF
:1019E0000E940D2F7B018C010E94CD326EE170E0D0
:1019F0000E941E32AA2797FDA095BA2FBC01CD01E7
:101A00000E94A82F20E030E048E452E40E947A2EA1
:101A100020E030E048EC52E40E940D2F5B016C01A5
:101A2000B701C8010E940A2F9B01AC01C601B50194
:101A30000E941D3160932705709328058093290526
:101A400090932A05B701C8010E94A0319B01AC0107
:101A5000C601B5010E941D3160932B0570932C05C2
:101A600080932D0590932E051F910F91FF90EF907D
:101A7000DF90CF90BF90AF900895EF92FF920F93B9
:101A80001F93CF93DF9360911F0570912005809184
:101A9000210590912205209127053091280540913C
:101AA000290550912A050E947A2E0E9480310E94B9
:101AB000752F8B0160912305709124058091250578
:101AC0009091260520912B0530912C0540912D05F4
:101AD00050912E050E947A2E0E9480310E94752F0F
:101AE000EB010130110559F02091620383E590E08C
:101AF000821B91090817190711F030E003C00E94FA
:101B0000D00C31E0C930D10549F0209163038FE258
:101B100090E0821B9109C817D90719F40E94D00CD4
:101B200057C0332309F054C0E0908D04F0908E0428
:101B300000918F0410919004609127057091280501
:101B40008091290590912A052DEC3CEC4CE45FE353
:101B50000E941D31A80197010E941D319B01AC011B
:101B600060911F05709120058091210590912205BB
:101B70000E947A2E60931F057093200580932105A3
:101B80009093220560912B0570912C0580912D0575
:101B900090912E052DEC3CEC4CE45FE30E941D314E
:101BA000A80197010E941D319B01AC0160912305A2
:101BB0007091240580912505909126050E947A2E2A
:101BC0006093230570932405809325059093260543
:101BD000DF91CF911F910F91FF90EF9008950F9398
:101BE0001F938091D0039091D103892B19F425E0A4
:101BF00030E002C028E030E08091D0039091D10322
:101C0000892B19F407E010E002C008E010E081E938
:101C100094E061E070E04AE050E00E94EA03009145
:101C2000630310E02091620330E062E570E0601B26
:101C3000710B4EE250E0421B530B8FE195E00E9486
:101C4000EA030E94D00C0E9484081F910F9108950E
:101C50000E9454280E9410050E94EF0D0E944C0C17
:101C60000E94D00C1092C1031092C0031092C503C1
:101C70001092C4031092C3031092C2031092C703C0
:101C80001092C6038091B104882311F01092B10420
:101C900008952F923F924F925F926F927F928F9210
:101CA0009F92AF92BF92CF92DF92EF92FF920F93EB
:101CB0001F93DF93CF93CDB7DEB72A970FB6F89473
:101CC000DEBF0FBECDBF1B012C012D833E834F8392
:101CD00058871A87098780911F0590912005A09148
:101CE0002105B091220589839A83AB83BC83BC0113
:101CF000CD01A20191010E94792E5B016C0120E0CF
:101D000030E040E050E00E94062F88238CF4698187
:101D10007A818B819C81A20191010E947A2E2FE60B
:101D200032E143E05BE30E94062F87FD0CC05CC0FC
:101D3000C601B5012FE632E143E05BE30E94062FC6
:101D400088230CF047C06090230570902405809094
:101D5000250590902605C401B3012D813E814F8158
:101D600058850E94792E7B018C0120E030E040E014
:101D700050E00E94062F88234CF4C401B3012D814A
:101D80003E814F8158850E947A2E02C0C801B7015A
:101D90002FE632E143E05BE30E94062F8823D4F470
:101DA000E985FA8533E0EE0FFF1F3A95E1F7A98543
:101DB000BA85EA0FFB1FE952FC4F89819A81AB81FA
:101DC000BC8180839183A283B3836482758286827F
:101DD00097820EC1C601B50120E030E040E050E03E
:101DE0000E94062F88234CF469817A818B819C8123
:101DF000A20191010E947A2E02C0C601B50120E025
:101E000030E040E050E00E94062F882331F56091D9
:101E100023057091240580912505909126052D813B
:101E20003E814F8158850E94062F18165CF40F2EB4
:101E3000FBEDEF2EFFE0FF2EF9E40F2FF0E41F2F54
:101E4000F02D4DC00F2EFBEDEF2EFFE0FF2EF9EC35
:101E50000F2FFFE31F2FF02D42C0609023057090DD
:101E600024058090250590902605C401B3012D819D
:101E70003E814F8158850E94792E7B018C0120E0A4
:101E800030E040E050E00E94062F882354F4C40163
:101E9000B3012D813E814F8158850E947A2E7B01AE
:101EA0008C01C601B50120E030E040E050E00E9426
:101EB000062F882354F469817A818B819C81A20149
:101EC00091010E947A2E5B016C01C801B701A60145
:101ED00095010E940D2F0E94DE2E7B018C016981ED
:101EE0007A818B819C81A20191010E94062FC98475
:101EF000DA8423E0CC0CDD1C2A95E1F788238CF4EE
:101F0000C801B7010E940A2FA985BA85CA0EDB1E37
:101F1000E7EDF3E0CE0EDF1E2AE939E949E15FEB98
:101F200010C0C801B7010E940A2FE985FA85CE0EBC
:101F3000DF1E27ED33E0C20ED31E2AE939E949E15D
:101F40005FE30E941D319B01AC01C201B1010E94FF
:101F50007A2ED6016D937D938D939C931397609108
:101F600023057091240580912505909126052D81EA
:101F70003E814F8158850E94062FC984DA8493E000
:101F8000CC0CDD1C9A95E1F788238CF4C801B701CD
:101F90000E94A031E985FA85CE0EDF1E27ED33E0E1
:101FA000C20ED31E2AE939E949E15FEB10C0C8012E
:101FB000B7010E94A031E985FA85CE0EDF1E27ED1C
:101FC00033E0C20ED31E2AE939E949E15FE30E94FA
:101FD0001D319B01AC016D817E818F8198850E94AE
:101FE0007A2ED60114966D937D938D939C931797BB
:101FF0002A960FB6F894DEBF0FBECDBFCF91DF910A
:102000001F910F91FF90EF90DF90CF90BF90AF9016
:102010009F908F907F906F905F904F903F902F9008
:1020200008958F929F92AF92BF92CF92DF92EF92DC
:10203000FF920F931F93CF93DF9360911F057091D1
:10204000200580912105909122050E94752F6B013A
:1020500060912305709124058091250590912605B6
:102060000E94752F8B0157ED852E53E0952EE401CC
:10207000EE24FF248885882309F481C06881798152
:102080008A819B810E94752FC616D70609F077C0FA
:102090006C817D818E819F810E94752F06171707A5
:1020A00009F06DC08091E5059091E6050196909349
:1020B000E6058093E505870143E0000F111F4A956F
:1020C000E1F70E0D1F1D09521C4FF80110866081AB
:1020D0007181828193810E9480315B016C01F801E2
:1020E00064817581868197810E9480317B018C019A
:1020F000C601B5010E94752F5B016C01C801B701D3
:102100000E94752F9B01AC01C501B90140E00E94FE
:102110005C2860911F0570912005809121059091A8
:1021200022050E9480315B016C0160912305709152
:10213000240580912505909126050E9480317B0120
:102140008C01C601B5010E94752F5B016C01C801AD
:10215000B7010E94752F9B01AC018CE693E0B5019D
:10216000A90120E00E94DF076091620340916303B0
:102170008FE195E070E050E00E94430509C00894AB
:10218000E11CF11C2996F4E1EF16F10409F072CF7D
:1021900080910A0590910B05181619061CF081E034
:1021A0008093B104C0E0D0E0F4018085882309F475
:1021B000CFC060817181828193810E9480315B01F7
:1021C0006C01F40164817581868197810E94803160
:1021D0007B018C01C601B5010E94752F5B016C016A
:1021E000C801B7010E94752F9B01AC01C501B9015F
:1021F00040E00E945C28F4016081718182819381BA
:1022000024813581468157818E010E94490EF40157
:1022100060817181828193810E9480315B016C01B8
:10222000F40164817581868197810E9480317B01F0
:102230008C01C601B5010E94752F5B016C01C801BC
:10224000B7010E94752F9B01AC01C501B90141E0A6
:102250000E945C28F40160817181828193810E94D7
:1022600080315B016C01F401648175818681978105
:102270000E9480317B018C01C601B5010E94752F3F
:102280005B016C01C801B7010E94752F9B01AC0175
:10229000C501B9010E943E0A892BB1F5F4016081A4
:1022A0007181828193810E9480317B018C0120E0C9
:1022B00030E040E85FE30E94062F87FD25C0C8019B
:1022C000B70120E030E044EA52E40E9412311816CF
:1022D000DCF0F40164817581868197810E948031F0
:1022E0007B018C0120E030E040E251E40E94062FA7
:1022F00087FD0AC0C801B70120E030E048E352E49E
:102300000E941231181624F5F40110866081718143
:10231000828193810E9480315B016C01F4016481B0
:102320007581868197810E9480317B018C01C60175
:10233000B5010E94752F5B016C01C801B7010E94B5
:10234000752F9B01AC01C501B90140E00E945C28DA
:10235000219689E090E0880E991EC431D10509F0DC
:1023600023CFDF91CF911F910F91FF90EF90DF90DE
:10237000CF90BF90AF909F908F9008950F931F9331
:10238000CF93DF93EFEDF3E0C0E0D0E080818823CE
:1023900001F5609191047091920480919304909161
:1023A00094042091950430919604409197045091A3
:1023B00098048E010E94490EFE0163E0EE0FFF1F9C
:1023C0006A95E1F7EC0FFD1FE952FC4F81E0808731
:1023D00005C021963996C431D105C1F6DF91CF9160
:1023E0001F910F9108950F931F93CF93DF9381E077
:1023F0000E943D28EC0180E00E943D288C0181E094
:10240000CF3FD80794F0BE01882777FD8095982F9D
:102410000E94A82F20E030E04FEF53E40E94792E75
:1024200020E030E440E054E422C081E0CC3FD80713
:102430006CF080E090E0A0E0B0E080931B0590930A
:102440001C05A0931D05B0931E051BC0BE01882767
:1024500077FD8095982F0E94A82F20E030E04DEF67
:1024600053E40E94792E20E030E04DEF53E40E94C7
:102470000D2F60931B0570931C0580931D05909391
:102480001E05B801882777FD8095982F0E94A82FF8
:102490009B01AC0160E070EC8FE794E40E94792E20
:1024A00020E030EC4FE754E40E940D2F60938D0440
:1024B00070938E0480938F0490939004DF91CF915A
:1024C0001F910F910895DC010D900020E9F71197FD
:1024D000A81BB90BBD010E941A250895EF92FF9227
:1024E0000F931F93DF93CF93CDB7DEB7A0970FB6AF
:1024F000F894DEBF0FBECDBF0E948A24882309F462
:1025000059C00E9465247C0189E6E816F10439F17E
:102510009AE6E916F10474F4A4E6EA16F104F9F077
:10252000B6E6EB16F104D9F081E6E816F10409F0FD
:1025300041C015C090E7E916F10489F0A1E7EA1659
:10254000F1042CF4BCE6EB16F104A1F508C083E716
:10255000E816F10421F097E7E916F10459F5ADB753
:10256000BEB718970FB6F894BEBF0FBEADBFEDB79C
:10257000FEB731968E010F5F1F4F12961C930E937C
:10258000119780E290E09383828380E091E09583CD
:102590008483F782E6820E9418348DB79EB708962E
:1025A0000FB6F8949EBF0FBE8DBFC8010E94631284
:1025B0008E2D01C080E2A0960FB6F894DEBF0FBE4C
:1025C000CDBFCF91DF911F910F91FF90EF900895B4
:1025D0008091B8049091B904019719F40E94030303
:1025E00008950E946E12803211F40E940303089530
:1025F0000F931F938B010E946312C8010E94631204
:102600001F910F9108956091C6037091C7038827A9
:1026100077FD8095982F0E94A82F20E836E948E1A1
:1026200051E40E94123188234CF08091C004882329
:1026300029F40E94A70381E08093C00489EA94E012
:1026400061EC74E00E94E104892B29F181E090E0C3
:102650009093D1038093D0031092D2031092C004C0
:102660006091BC047091BD044091BE045091BF04C0
:102670008CE993E020E00E94DF071092C7031092DC
:10268000C6031092C9031092C80380E191E06AE189
:1026900071E00E94F81208952F923F924F925F923C
:1026A0006F927F928F929F92AF92BF92CF92DF9262
:1026B000EF92FF920F931F93DF93CF93CDB7DEB7C7
:1026C00060970FB6F894DEBF0FBECDBF9E838D839B
:1026D00078876F831C821B8271C0F101EC58FC4F1C
:1026E000808190E029813A8182239323892B09F408
:1026F0004EC082E895E0988B8F87EF85F8896081DE
:102700007181828193810E94752F69877A878B8777
:102710009C87EF85F88964817581868197810E9405
:10272000752F2B013C01EF85F889608571858285C5
:1027300093850E94752F4B015C01EF85F8896485B4
:102740007585868597850E94752F6B017C018D8527
:102750009E856F81788549855A859201840176012D
:102760000E948809892B49F08DE191E06AE171E0CE
:102770000E94F81220E030E049C02F853889285E99
:102780003F4F388B2F87225E354009F0B6CF089433
:10279000211C311C8091D0039091D103892B19F415
:1027A00087E090E002C088E090E0281639060CF43B
:1027B00094CFEB81FC813196FC83EB838091D00335
:1027C0009091D103892B19F485E090E002C088E054
:1027D00090E02B813C8128173907B4F487E090E022
:1027E000821B930BE1E0F0E002C0EE0FFF1F8A9521
:1027F000E2F7FA83E983222433248D819E81280F16
:10280000391F3E872D87C6CF21E030E0C901609691
:102810000FB6F894DEBF0FBECDBFCF91DF911F91F1
:102820000F91FF90EF90DF90CF90BF90AF909F906F
:102830008F907F906F905F904F903F902F90089572
:10284000CF92DF92EF92FF920F931F93DF93CF937C
:10285000CDB7DEB7C456D0400FB6F894DEBF0FBE7A
:10286000CDBF8DB79EB70A970FB6F8949EBF0FBE27
:102870008DBF0DB71EB70F5F1F4F7E010894E11C7F
:10288000F11CADB7BEB71296FC92EE921197B4E66A
:10289000CB2ED12CF801D382C2828DE291E09583B8
:1028A000848380918B0490918C04978386836091BC
:1028B000B2047091B3048091B4049091B5040E9465
:1028C000752FD80119967C936E9318970E9418342F
:1028D000EDB7FEB73A960FB6F894FEBF0FBEEDBF48
:1028E00089E391E0B7010E94F8128DB79EB708976F
:1028F0000FB6F8949EBF0FBE8DBFEDB7FEB73196F1
:10290000ADB7BEB71296FC92EE921197D382C282F7
:1029100006E411E0158304838091B8049091B90412
:10292000978386830E941834EDB7FEB738960FB6AA
:10293000F894FEBF0FBEEDBF8BE491E0B7010E949B
:10294000F8128DB79EB708970FB6F8949EBF0FBECA
:102950008DBFEDB7FEB73196ADB7BEB71296FC92FC
:10296000EE921197D382C282158304838091E5058C
:102970009091E6052091E3053091E405820F931FC5
:102980002091B203820F911D978386830E94183491
:10299000EDB7FEB738960FB6F894FEBF0FBEEDBF89
:1029A00083E591E0B7010E94F812EFEDF3E020E03B
:1029B00030E08081882311F02F5F3F4F399684E00B
:1029C000E339F807B1F7ADB7BEB718970FB6F8946B
:1029D000BEBF0FBEADBFEDB7FEB731968E010F5F24
:1029E0001F4F12961C930E931197A4E6CA2ED12C5A
:1029F000D382C28276E4E72E71E0F72EF582E4827C
:102A0000378326830E941834EDB7FEB738960FB689
:102A1000F894FEBF0FBEEDBF8BE591E0B8010E94B8
:102A2000F8128DB79EB708970FB6F8949EBF0FBEE9
:102A30008DBFEDB7FEB73196ADB7BEB712961C93FA
:102A40000E931197D382C282F582E4828091BA04F8
:102A50009091BB04978386830E941834EDB7FEB72C
:102A600038960FB6F894FEBF0FBEEDBF81E791E038
:102A7000B8010E94F8128DB79EB708970FB6F89468
:102A80009EBF0FBE8DBFEDB7FEB73196ADB7BEB7D7
:102A900012961C930E931197D382C282F582E48220
:102AA0008091B6049091B704978386830E9418346E
:102AB000EDB7FEB738960FB6F894FEBF0FBEEDBF68
:102AC00088E891E0B8010E94F8128DB79EB7089788
:102AD0000FB6F8949EBF0FBE8DBFEDB7FEB731960F
:102AE000ADB7BEB712961C930E931197D382C282D4
:102AF000F582E4828091E3059091E40597838683D3
:102B00000E941834EDB7FEB738960FB6F894FEBFA2
:102B10000FBEEDBF8CE991E0B8010E94F8128DB7AD
:102B20009EB708970FB6F8949EBF0FBE8DBFEDB746
:102B3000FEB73196ADB7BEB712961C930E931197A0
:102B4000D382C282F582E48280910A0590910B05BE
:102B5000978386830E941834EDB7FEB738960FB678
:102B6000F894FEBF0FBEEDBF8FEA91E0B8010E945E
:102B7000F8128091D0039091D103019719F067EB7F
:102B800071E002C06FEB71E086EC91E00E94F812F8
:102B90008091E205882319F467EB71E002C06FEBC6
:102BA00071E082EE91E00E94F812CC59DF4F0FB62F
:102BB000F894DEBF0FBECDBFCF91DF911F910F9173
:102BC000FF90EF90DF90CF9008950F931F93DF93C6
:102BD000CF93CDB7DEB7C456D0400FB6F894DEBF62
:102BE0000FBECDBF2DB73EB72A5030400FB6F89478
:102BF0003EBF0FBE2DBFEDB7FEB731968E010F5F02
:102C00001F4FADB7BEB712961C930E93119724E6D3
:102C100030E03383228320EF31E0358324836683E1
:102C20007783808791870E9418342DB73EB7265F3F
:102C30003F4F0FB6F8943EBF0FBE2DBFC8016AE1EB
:102C400071E00E94F812CC59DF4F0FB6F894DEBF46
:102C50000FBECDBFCF91DF911F910F9108952F929D
:102C60003F924F925F926F927F928F929F92AF921C
:102C7000BF92CF92DF92EF92FF920F931F93DF9359
:102C8000CF93CDB7DEB7EC970FB6F894DEBF0FBE8B
:102C9000CDBF22E835E03CAF2BAF1E821D825FC264
:102CA000ABADBCAD6D917D918D919C910E948031B9
:102CB0006B8B7C8B8D8B9E8BEBADFCAD64817581BA
:102CC000868197810E9480315B016C01ABADBCAD08
:102CD00018966D917D918D919C911B970E948031EA
:102CE0007B018C01EBADFCAD648575858685978590
:102CF0000E9480312B013C016B897C898D899E89E2
:102D00000E94752F6F8B788F898F9A8FC601B501BE
:102D10000E94752F4B015C01C801B7010E94752FFD
:102D20006B017C01C301B2010E94752F8B019C01D4
:102D30008F89988DB401A601980100E00E94972820
:102D400084EF91E06AE171E00E94F8122D813E81EA
:102D5000B901882777FD8095982F0E94A82F0E949F
:102D6000E51589EF91E06AE171E00E94F812ABADE0
:102D7000BCAD50966D917D918D919C9153970E9421
:102D8000E515EBADFCAD2080318042805380809111
:102D90001B0590911C05A0911D05B0911E058F8704
:102DA000988BA98BBA8BBC01CD01208931894289CE
:102DB00053890E941D316B877C878D879E87ABADC1
:102DC000BCAD1896AD90BD90CD90DC901B97C20124
:102DD000B101A60195010E94792E7B018C0120E0B2
:102DE00030E040E050E00E94062F88232CF5C2011D
:102DF000B101A60195010E947A2E7B018C0120E091
:102E000030E042EA52E40E947A2E6FAB78AF89AF8D
:102E10009AAF6BAB7CAB8DAB9EAB6FA778AB89AB3E
:102E20009AAB370148019701A40179018A016BA788
:102E30007CA78DA79EA71AC0C801B70120E030E08B
:102E400042EA52E40E947A2E6FAB78AF89AF9AAF14
:102E50006BAB7CAB8DAB9EAB6FA778AB89AB9AAB02
:102E60006BA77CA78DA79EA737014801C601B501B6
:102E70002B853C854D855E850E947A2EEFA5F8A9AD
:102E8000D9A8CAA89F014D2D5C2D0E94EA2F9B0155
:102E9000AC01CA01B90120E030E044EA52E40E94EA
:102EA0007A2E20E030E040E85FE30E94792EA8010E
:102EB00097010E947A2EEBA5FCA51DA50EA59F01EA
:102EC000412F502F0E94EA2F162F072FF82EE92EA0
:102ED000C201B1012B853C854D855E850E947A2E0D
:102EE000EFA9F8ADD9ACCAAC9F014D2D5C2D0E9465
:102EF000EA2F9B01AC01CA01B90120E030E044EAAD
:102F000052E40E947A2E20E030E040E85FE30E9425
:102F1000792EA40193010E947A2EEBA9FCA9DDA8C9
:102F2000CEA89F014D2D5C2D0E94EA2FAC01CB0154
:102F3000DA01EBADFCAD80839183A283B383212FB3
:102F4000302F4F2D5E2DC901DA0180879187A2872E
:102F5000B387A480B580C680D7806F85788989893A
:102F60009A8924893589468957890E941D316F8342
:102F7000788789879A87ABADBCAD1C966D907D90A4
:102F80008D909C901F97C601B501A40193010E94EA
:102F9000792E7B018C0120E030E040E050E00E947F
:102FA000062F882344F4C601B501A40193010E94B1
:102FB0007A2E7B018C01C801B70120E030E048E3A4
:102FC00052E40E947A2E6FA378A789A79AA76BA3D1
:102FD0007CA38DA39EA31B012C016F8F78A389A3D3
:102FE0009AA3C401B3012F81388549855A850E946F
:102FF0007A2E9101A2010E94EA2F9B01AC01CA0125
:10300000B90120E030E048E352E40E947A2EA801A2
:1030100097010E947A2EEF8DF8A199A08AA09F01B6
:10302000492D582D0E94EA2F962E872E782E692E34
:10303000C601B5012F81388549855A850E947A2EAF
:10304000EFA1F8A5D9A4CAA49F014D2D5C2D0E9423
:10305000EA2F9B01AC01CA01B90120E030E048E34E
:1030600052E40E947A2EA80197010E947A2EEBA1C9
:10307000FCA11DA10EA19F01412F502F0E94EA2FFC
:10308000162F072FF82EE92E862F902FAF2DBE2D4D
:10309000EBADFCAD84839583A683B783292D382DB2
:1030A000472D562DC901DA0184879587A687B787F2
:1030B00060817181828193810E94803169837A83EA
:1030C0008B839C83612F702F8F2D9E2D0E948031CA
:1030D0005B016C01ABADBCAD18966D917D918D918E
:1030E0009C911B970E9480317B018C01292D382DEA
:1030F000472D562DB901CA010E9480312B013C0198
:1031000069817A818B819C810E94752F6B8F7C8F66
:103110008D8F9E8FC601B5010E94752F4B015C01FA
:10312000C801B7010E94752F6B017C01C301B20178
:103130000E94752F8B019C018B8D9C8DB401A60183
:10314000980101E00E949728ED81FE813196FE836F
:10315000ED832BAD3CAD285E3F4F3CAF2BAF809154
:10316000B50390E0AD81BE818A179B070CF098CD26
:10317000EC960FB6F894DEBF0FBECDBFCF91DF91B6
:103180001F910F91FF90EF90DF90CF90BF90AF9085
:103190009F908F907F906F905F904F903F902F9077
:1031A00008958F929F92AF92BF92CF92DF92EF924B
:1031B000FF920F931F93CF93DF934C018C01000F6D
:1031C000111F080F191FF80143E0EE0FFF1F4A956A
:1031D000E1F7E657FA4F33E0000F111F3A95E1F798
:1031E000E801CE57DA4F6081718182819381288115
:1031F00039814A815B810E94792E5B016C0188E0F4
:1032000092E06AE171E00E94F812C601B5010E94E5
:10321000E5150A571A4F6C857D858E859F85F801C7
:1032200020813181428153810E94792E7B018C0162
:1032300080E192E06AE171E00E94F812C801B701F2
:103240000E94E515C601B50120E030E040E050E005
:103250000E94062F882369F4E88AF98A0A8B1B8B5F
:1032600080E090E0A0E0B0E08C8B9D8BAE8BBF8BBC
:1032700037C0C801B70120E030E040E050E00E94D4
:10328000062F882369F480E090E0A0E0B0E0888B0E
:10329000998BAA8BBB8BAC8ABD8ACE8ADF8A20C071
:1032A000C801B701A60195010E940D2F9B01AC0139
:1032B00060E070E080E89FEB0E940D2F0E94DE2E00
:1032C0007B018C010E940A2F688B798B8A8B9B8BE8
:1032D000C801B7010E94A0316C8B7D8B8E8B9F8BB8
:1032E00088E192E06AE171E00E94F8128401000F27
:1032F000111F080D191D83E0000F111F8A95E1F7BA
:103300000E571A4FF80160897189828993890E944A
:10331000E5158BE192E06AE171E00E94F812F80194
:1033200064897589868997890E94E515DF91CF9117
:103330001F910F91FF90EF90DF90CF90BF90AF90D3
:103340009F908F900895EF92FF920F931F93DF93BA
:10335000CF93CDB7DEB7E2970FB6F894DEBF0FBEBE
:10336000CDBF82E190E065E070E04EE152E021E007
:103370000E944B2A84E190E06FE070E049E252E065
:1033800021E00E944B2A8CE090E069E170E043E389
:1033900052E020E00E944B2A0E94702A8E010F5FAB
:1033A0001F4F68ECE62EF12C1AC080E090E0B801C7
:1033B0004AE050E00E94CB33C8010E946312809122
:1033C00080059091810501969093810580938005F9
:1033D00088EE93E0F7013197F1F70197D9F78091E3
:1033E000B803882311F30E9454280E94702A81E0B8
:1033F0008093B30381E492E06AE171E00E94F812E5
:10340000E2960FB6F894DEBF0FBECDBFCF91DF912D
:103410001F910F91FF90EF9008950F931F93DF93EB
:10342000CF93CDB7DEB70B851C85FE017296C80120
:103430006D857E85488959899F010E9463348F81FB
:10344000988569857A85A8012F850E944B2ACF919E
:10345000DF911F910F910895CF92DF92EF92FF922B
:103460000F931F93DF93CF93CDB7DEB7C055D040F6
:103470000FB6F894DEBF0FBECDBF8DB79EB70F97C6
:103480000FB6F8949EBF0FBE8DBFEDB7FEB7319655
:10349000ADB7BEB712961C921E921197138212827C
:1034A0006E010894C11CD11CD582C48270E5E72E40
:1034B000F12CF782E682108680E592E09287818780
:1034C0008091B8049091B9049487838716861586F5
:1034D0000E940D1A8DB79EB70F960FB6F8949EBF37
:1034E0000FBE8DBF02E513E0C8016FE070E040E061
:1034F00050E021E00E94DF07C80161E170E040E098
:1035000050E021E00E94DF07ADB7BEB71D970FB6B0
:10351000F894BEBF0FBEADBFEDB7FEB731968DE1DB
:1035200090E012969C938E93119713821282D5820B
:10353000C482F782E682108685E592E092878187D1
:1035400080910A0590910B05948783870E940D1A3C
:103550008DB79EB70D960FB6F8949EBF0FBE8DBF68
:103560008AE593E063E170E040E050E021E00E94F2
:10357000DF07C8016BE170E040E050E021E00E940D
:10358000DF07ADB7BEB71D970FB6F894BEBF0FBE2D
:10359000ADBFEDB7FEB7319686E290E012969C93F0
:1035A0008E93119713821282D582C482F782E682AB
:1035B000108689E592E0928781878091E505909158
:1035C000E6052091E3053091E405820F931F2091D9
:1035D000B203820F911D948783870E940D1A8DB7C5
:1035E0009EB70D960FB6F8949EBF0FBE8DBF80E0BC
:1035F00090E069E070E042E550E029E030E001E071
:103600000E94972880E090E069E070E040E050E0A0
:103610002EE230E00E94972880E090E06EE270E0B9
:1036200042E550E02EE230E00E94972882E590E0EB
:1036300069E070E042E550E02EE230E00E94972819
:103640000E94702AC05BDF4F0FB6F894DEBF0FBE3A
:10365000CDBFCF91DF911F910F91FF90EF90DF9041
:10366000CF900895DF93CF93CDB7DEB7E2970FB633
:10367000F894DEBF0FBECDBF80910A0590910B0577
:10368000181619063CF082E190E065E070E04FE525
:1036900052E006C082E190E065E070E04CE652E066
:1036A00020E00E944B2A8DB79EB70D970FB6F89475
:1036B0009EBF0FBE8DBFEDB7FEB7319687E190E09C
:1036C000ADB7BEB712969C938E9311978FE090E0A2
:1036D00093838283CE0101969583848382E390E075
:1036E0009783868381E0808787E792E0928781874E
:1036F0008091E5059091E6052091E3053091E40580
:10370000820F931F2091B203820F911D94878387AC
:103710000E940D1A8DB79EB70D960FB6F8949EBFF6
:103720000FBE8DBF89E090E06EE170E041E852E0AD
:1037300021E00E944B2AE2960FB6F894DEBF0FBE3E
:10374000CDBFCF91DF910895EF92FF920F931F931A
:10375000DF93CF93CDB7DEB7E2970FB6F894DEBF15
:103760000FBECDBF8091B8049091B9040297CCF4FC
:1037700080910A0590910B051816190694F480E9BA
:1037800092E06AE171E00E94F8128091B804909191
:10379000B90401969093B9048093B8040E94102252
:1037A0002CC00E9454280E94321B0E94702A8E0155
:1037B0000F5F1F4FE8ECEE2EF12C8091B80390E0E4
:1037C000B8014AE050E00E94CB33C8010E94631266
:1037D0008091B803882349F08DE992E06AE171E0B5
:1037E0000E94F8120E94280E08C088EE93E0F701AC
:1037F0003197F1F70197D9F7E0CFE2960FB6F89439
:10380000DEBF0FBECDBFCF91DF911F910F91FF9013
:10381000EF90089580911205813091F489EA94E047
:1038200063E175E00E94E104892B51F010921205CA
:1038300088EA92E06AE171E00E94F8120E94A41BFB
:103840000895CF92DF92EF92FF920F931F93CF9341
:10385000DF936091C4037091C503882777FD80953D
:10386000982F0E94A82F20E03BE147EB50E40E94F4
:10387000123188230CF470C08091BA049091BB047B
:1038800005970CF069C08091E205882309F064C0B7
:10389000EDECF4E020E030E08081882309F055C0B1
:1038A0008DE090E0289F8001299F100D389F100D1A
:1038B000112407531B4F81E0F801848360911F0599
:1038C0007091200580912105909122050E94803100
:1038D0000E94752F6B017C01F801718360836091F8
:1038E00023057091240580912505909126050E945D
:1038F00080310E94752F9B01AC01F80173836283B4
:103900008CE893E0B601A90121E00E94DF078091D5
:10391000BA049091BB0401969093BB048093BA04BF
:10392000F80182819381208131819683858330875C
:1039300027830596928781872B5F3F4F34872387A4
:103940001092C5031092C40307C02F5F3F4F3D96EE
:103950002530310509F0A0CF8091D0039091D1039B
:10396000892B09F055C0CDECD4E0EE24FF240DE006
:1039700010E08881882309F442C0E09EB001E19EF6
:10398000700DF09E700D112462537B4F89EA94E014
:103990000E94E104892B99F180910A0590910B0511
:1039A000019790930B0580930A051816190614F0D9
:1039B0000E94A41B8091BA049091BB04019790933C
:1039C000BB048093BA048DE090E0E89E8001E99EFC
:1039D000100DF89E100D112407531B4FF801608144
:1039E0007181428153818CE893E020E00E94DF07DF
:1039F000F80114821092C5031092C40309C0089400
:103A0000E11CF11C2D96F5E0EF16F10409F0B1CFA1
:103A1000DF91CF911F910F91FF90EF90DF90CF90AA
:103A200008956F927F928F929F92AF92BF92CF92A2
:103A3000DF92EF92FF920F931F93CF93DF938091CA
:103A4000D0039091D103892B19F4C4E7D3E002C0CD
:103A5000CCE7D3E06091910470919204809193043B
:103A6000909194040E94752F7B018C0160919504C4
:103A70007091960480919704909198040E94752FFC
:103A80009B01AC01CE01B701A90120E00E94DF0734
:103A90000E94E812893609F441C18A3650F484360E
:103AA00009F4C9C0863609F42DC1813609F038C140
:103AB00009C0833709F454C0873759F1803709F0BA
:103AC0002FC129C1E0909104F090920400919304D9
:103AD00010919404C801B70120E030E040E050E4C8
:103AE0000E94123118160CF01BC120918D043091E8
:103AF0008E0440918F04509190048091D003909156
:103B0000D103892B09F0EBC0C801B7010E94792EBF
:103B1000C2C0E0909504F090960400919704109133
:103B20009804C801B70120E030E040E251E40E946F
:103B3000123118160CF0F4C020918D0430918E04CF
:103B400040918F04509190048091D0039091D103C3
:103B5000892B09F05DC0C801B7010E94792E30C0E1
:103B6000E0909504F09096040091970410919804C9
:103B70008091D0039091D103892B29F420E030E08B
:103B80004CE152E404C020E030E048E152E4C801D6
:103B9000B7010E94062F88230CF0C2C020918D042B
:103BA00030918E0440918F04509190048091D00305
:103BB0009091D103892B61F5C801B7010E947A2E3B
:103BC0007B018C013B01480160919104709192044A
:103BD00080919304909194040E9480315B016C0168
:103BE000B701C8010E9480317B018C01C601B5017B
:103BF0000E94752F5B016C01C801B7010E94752FEF
:103C00009B01AC01C501B9010E944C13892B41F401
:103C1000609095047090960480909704909098041A
:103C2000C301D4018093950490939604A0939704C4
:103C3000B093980475C0E0909104F09092040091C4
:103C40009304109194048091D0039091D103892B17
:103C500029F420E030E04AE952E404C020E030E0FA
:103C600044E952E4C801B7010E94062F88230CF0F2
:103C700057C020918D0430918E0440918F04509153
:103C800090048091D0039091D103892B41F5C80114
:103C9000B7010E947A2E3B014C010E9480315B01EA
:103CA0006C016091950470919604809197049091B5
:103CB00098040E9480317B018C01C601B5010E94ED
:103CC000752F5B016C01C801B7010E94752F9B0124
:103CD000AC01C501B9010E944C13892B41F46090DD
:103CE0009104709092048090930490909404C30186
:103CF000D4018093910490939204A0939304B09381
:103D000094040EC08091E3059091E405039744F07C
:103D10000E94BE1105C00E94390602C00E942014F4
:103D20008091D0039091D103892B19F4C4E7D3E09B
:103D300002C0CCE7D3E0609191047091920480912D
:103D40009304909194040E94752F7B018C016091E3
:103D500095047091960480919704909198040E9424
:103D6000752F9B01AC01CE01B701A90121E00E9492
:103D7000DF0760919504709196048091970490916B
:103D800098040E94752FEB01609191047091920448
:103D900080919304909194040E94752F8091D00398
:103DA0009091D103892B19F427E030E002C028E07C
:103DB00030E08091D0039091D103892B19F485E0F4
:103DC00090E002C088E090E0D093AA04C093A904D8
:103DD0007093AC046093AB042C0F3D1F3093AE0482
:103DE0002093AD04860F971F9093B0048093AF0487
:103DF0008091D0039091D103892BD1F18091A403BC
:103E00009091A5038F3F91055CF48091A40390915C
:103E1000A5038E3F910584F48091B603813061F44F
:103E20008091A4039091A50388979093A503809314
:103E3000A40381E08093B6038091A4039091A5032D
:103E400097FD0BC08091A4039091A5038E3F91052F
:103E50007CF48091B603882359F48091A403909157
:103E6000A50388969093A5038093A4031092B603AC
:103E70008091E205882309F088C060911F05709148
:103E8000200580912105909122050E9480315B01DF
:103E90006C01609123057091240580912505909116
:103EA00026050E9480317B018C01C601B5010E946C
:103EB000752F5B016C01C801B7010E94752F9B0132
:103EC000AC018CE693E0B501A90120E00E94DF0778
:103ED0000E943D0D60911F05709120058091210584
:103EE000909122050E9480315B016C016091230555
:103EF0007091240580912505909126050E948031BE
:103F00007B018C01C601B5010E94752F5B016C011C
:103F1000C801B7010E94752F9B01AC018CE693E0AC
:103F2000B501A90121E00E94DF076091230570918E
:103F3000240580912505909126050E94752F6B011F
:103F40007C018B0160911F057091200580912105F6
:103F5000909122050E94752F9B014091630350911F
:103F60006203D0923805C092370570933A0560938A
:103F70003905040F111D10933C0500933B05250FD7
:103F8000311D30933E0520933D0589EA94E067E3B7
:103F900075E00E94E104892BE1F08091D0039091BB
:103FA000D103892B79F480910A0590910B05019733
:103FB00090930B0580930A051816190644F00E9489
:103FC000A41B05C08091B2038F5F8093B2030E944F
:103FD000ED08DF91CF911F910F91FF90EF90DF904F
:103FE000CF90BF90AF909F908F907F906F900895EB
:103FF0002F923F924F925F926F927F928F929F92F9
:10400000AF92BF92CF92DF92EF92FF920F931F93E6
:10401000DF93CF93CDB7DEB7E5970FB6F894DEBF49
:104020000FBECDBF0E948A2490E0A0E0B0E0BC01AA
:10403000CD010E94A62F0E94E5150E948A248823A4
:1040400009F475C110E01BAA1AAA0E9465248435E0
:10405000910599F08535910564F42FEF8F3F920714
:10406000A4F3181619060CF04FC18A34910569F7AC
:104070004CC08735910549F7A3C0CE0141960E94F7
:10408000BD0A1A8219821C821B828DB79EB70897BF
:104090000FB6F8949EBF0FBE8DBFEDB7FEB7319639
:1040A00021E130E02C0F3D1FADB7BEB712963C9317
:1040B0002E93119783EB92E093838283A1E0B0E08B
:1040C000AC0FBD1FB583A48323E030E02C0F3D1F50
:1040D000378326830E9449348DB79EB708960FB662
:1040E000F8949EBF0FBE8DBF69817A814B815C8140
:1040F00020916203009163038FE195E030E010E0CE
:104100000E94EA0389EB92E055C0CE0141960E94DD
:10411000BD0A1E821D8218861F82ADB7BEB71897D2
:104120000FB6F894BEBF0FBEADBFEDB7FEB7319668
:1041300021E130E02C0F3D1F12963C932E931197F6
:1041400083EB92E093838283A5E0B0E0AC0FBD1FC8
:10415000B583A48327E030E02C0F3D1F37832683EF
:104160000E9449346D817E814F8158858091D003B2
:104170009091D103ADB7BEB718960FB6F894BEBFF5
:104180000FBEADBF892B19F425E030E002C028E056
:1041900030E08091D0039091D103892B19F407E08E
:1041A00010E002C008E010E081E994E00E94EA0318
:1041B0008FEC92E06AE171E00E94F81211E0A9C070
:1041C000CE0141960E94BD0A8091B503843008F06B
:1041D000A0C0EDB7FEB73C970FB6F894FEBF0FBE78
:1041E000EDBF319621E130E02C0F3D1FADB7BEB7DA
:1041F00012963C932E9311978DEE92E093838283D7
:10420000A9E0B0E0AC0FBD1FB583A4832BE030E084
:104210002C0F3D1F378326838DE090E08C0F9D1F70
:1042200091878087AFE0B0E0AC0FBD1FB387A28756
:104230000E944934B091B503B9AB8B2F90E0CB8489
:10424000DC848D849E844F8458888C01000F111F5C
:10425000080F191F83E0000F111F8A95E1F7F8017D
:10426000EE57FA4FFDABECAB69857A85882777FD71
:104270008095982F0E94A82FACA9BDA96D937D931E
:104280008D939C931397A6E82A2EA5E03A2E200E34
:10429000311EEE24D7FCE094FE2CC701B6010E942B
:1042A000A82FF101608371838283938306571A4F8D
:1042B000AA2497FCA094BA2CC501B4010E94A82F8F
:1042C000D8016D937D938D939C931397662457FC2F
:1042D0006094762CC301B2010E94A82FECA9FDA91D
:1042E0006487758786879787F9A9FF5FF093B50381
:1042F0002DB73EB7245F3F4F0FB6F8943EBF0FBEB9
:104300002DBF89EF92E056CF8AA99BA901969BAB5E
:104310008AABAAA9BBA91A970CF497CE112339F03E
:1043200085E093E06AE171E00E94F81218C00E94F3
:1043300054288AE090E06FE070E04AE153E020E02A
:104340000E944B2A0E94702A80E197E228EC30E01C
:10435000F9013197F1F70197D9F70E94A41BE5966F
:104360000FB6F894DEBF0FBECDBFCF91DF911F9186
:104370000F91FF90EF90DF90CF90BF90AF909F9004
:104380008F907F906F905F904F903F902F90089507
:1043900080E88093610081E0809361000E9449245D
:1043A0000E9439288FE30E94A42A0E9454280E9468
:1043B00062248823E1F386988598229A239A14BC74
:1043C00091E095BD90936E001092900082E08093F2
:1043D000910090937100789489E293E00E946312B7
:1043E0000E94A3190E94100580918005909181057B
:1043F0000E94D2320E944C0C0E94F81F0E94D00CE6
:104400000E9484080E942C1A1092800083E08093FE
:10441000810081E080936F000E9489037894089561
:10442000EF92FF920F931F93CF93DF939091B50379
:10443000E2E8F5E088E1989F900111242E0F3F1FDC
:1044400080E090E0A0E0B0E011C080839183A2837F
:10445000B38380879187A287B38784839583A6835C
:10446000B78384879587A687B7877896E217F3077F
:1044700061F71092B5038091D0039091D103892BFD
:1044800019F4C4E7D3E002C0CCE7D3E06091910413
:104490007091920480919304909194040E94752FDE
:1044A0007B018C0160919504709196048091970432
:1044B000909198040E94752F9B01AC01CE01B70129
:1044C000A90120E00E94DF0780E090E0A0E0B0E0DA
:1044D0008093910490939204A0939304B0939404D6
:1044E0008093950490939604A0939704B0939804B6
:1044F00060911F0570912005809121059091220502
:104500000E94752F7B018C01609123057091240519
:1045100080912505909126050E94752F9B01AC0185
:104520008CE693E0B701A90120E00E94DF0780E05C
:1045300090E0A0EFB1E480931F0590932005A09335
:104540002105B09322058093230590932405A09321
:104550002505B09326050E944C0C9091E3058091AF
:10456000E505980F8091B203890F8093B2031092F2
:10457000E4051092E3051092E6051092E50510920D
:10458000E2051092B1041092B7041092B604109292
:10459000BB041092BA0482E393E06AE171E00E94E6
:1045A000F8120E94F81F0E94D00C0E9484081092FA
:1045B000C3031092C2031092C5031092C403109259
:1045C000C7031092C603DF91CF911F910F91FF9007
:1045D000EF9008959FB18091B903880F86709295EE
:1045E000969596959170892B8093B903873029F41D
:1045F00002C00E94A41B7E99FCCF08951F920F92C7
:104600000FB60F9211242F933F934F935F936F93A5
:104610007F938F939F93AF93BF93EF93FF9380917B
:10462000D0039091D103892B11F18091C80390910F
:10463000C9038091D2032091A4033091A50390E097
:10464000821793071CF42A9A2B9A02C02A982B9857
:104650008091D2038F5F8093D2038091C8039091A1
:10466000C90301969093C9038093C8030AC01092AE
:10467000C9031092C8031092D1031092D0032A9854
:104680002B980E94EA22FF91EF91BF91AF919F91E9
:104690008F917F916F915F914F913F912F910F90EB
:1046A0000FBE0F901F901895AF92BF92CF92DF92DE
:1046B000EF92FF920F931F93DF93CF93CDB7DEB7A7
:1046C000C055D0400FB6F894DEBF0FBECDBF60918D
:1046D000C0037091C103E0909400F090950088278A
:1046E00077FD8095982F0E94A82F20E03FEF4FE79D
:1046F00057E40E941D315B016C0100E010E0C8012D
:10470000B7010E94A62F9B01AC01C601B5010E9412
:104710007A2E20E030E040E051E40E941D3120E09C
:1047200034E244EF5AE40E940D2F6093B204709378
:10473000B3048093B4049093B50420E030E040E7E4
:1047400052E40E9412318823CCF01092C1031092DF
:10475000C00380918B0490918C04019690938C04FB
:1047600080938B0480E090E0A0E0B0E08093B204FE
:104770009093B304A093B404B093B50482E593E09E
:1047800068E370E040E050E021E00E94DF078DB771
:104790009EB70F970FB6F8949EBF0FBE8DBF0DB793
:1047A0001EB70F5F1F4F8AE390E0EDB7FEB792830D
:1047B0008183F80113821282CE010196958384834E
:1047C00080E590E097838683108688E493E0928763
:1047D000818780918B0490918C049487838760916A
:1047E000B2047091B3048091B4049091B5040E9416
:1047F000752FF801768765870E940D1A8DB79EB7D1
:104800000F960FB6F8949EBF0FBE8DBF0E94702A00
:10481000C05BDF4F0FB6F894DEBF0FBECDBFCF91A8
:10482000DF911F910F91FF90EF90DF90CF90BF909D
:10483000AF9008950E942C1A0E94F3118091B80342
:10484000882311F00E9439068091E205882311F433
:104850000E9454230E9465080E94111D0E9411109D
:104860000E94920B0E94211C0E9403130E940A1CAA
:104870000895CF93DF930E94C821C8ECD0E00E9436
:104880001A2484EF91E0FE013197F1F70197D9F7EF
:10489000F6CF81E08093D70080EA8093D80082E150
:1048A00089BD09B400FEFDCF80E98093D800109245
:1048B000E0001092D3031092D4038CE08093E200C6
:1048C000789408958091D30308952FB7F894809138
:1048D000D303882369F083E08093E9009BE680910D
:1048E000E80085FD09C082FF03C09093E800F7CF80
:1048F0002FBF2FEF3FEF0CC09091F1008091E800A7
:1049000085FD03C08BE68093E8002FBF292F30E0A0
:10491000C90108952FB7F8948091D303882311F427
:1049200090E010C083E08093E9009091F200992319
:1049300049F48091E80082FF05C085FD03C08BE645
:104940008093E8002FBF892F08958091D303882397
:1049500071F09FB7F89483E08093E9002BE602C0E2
:104960002093E8008091E80085FDFACF9FBF08956D
:10497000482F8091D3038823D9F12FB7F89484E08E
:104980008093E9008091D603882341F08091E8006C
:1049900085FD02C02FBF12C01092D6039091E40093
:1049A000975E34E08091E80085FD13C02FBF8091B1
:1049B000E400891729F481E08093D6038FEF0895EE
:1049C0008091D3038823A1F02FB7F8943093E900A6
:1049D000E9CF4093F1008091E80085FD03C08AE3B0
:1049E0008093E80085E08093D5032FBF80E0089591
:1049F0008FEF0895282F8091D303882351F09FB71C
:104A0000F89484E08093E9008091E80085FD03C07C
:104A10009FBF8FEF08952093F1008091E80085FDFE
:104A200003C08AE38093E80085E08093D5039FBFAD
:104A300080E00895CF93DF93EC018091D303882326
:104A400009F41CC13FB7F89484E08093E900809199
:104A5000D603882309F408C18091E80085FD02C0CF
:104A60003FBF0CC11092D603FFC09091E400975E47
:104A70008091E80085FD13C03FBF8091E400891755
:104A800021F481E08093D603F9C08091D303882379
:104A900009F4F4C03FB7F894B093E900E9CF8091EE
:104AA000F200242F281B822F90E06817790708F462
:104AB000262F822F90E08134910508F0C6C08A5AD3
:104AC0009F4FFC01EE0FFF1F0590F491E02D09941C
:104AD00089918093F10089918093F100899180936D
:104AE000F10089918093F10089918093F10089917F
:104AF0008093F10089918093F10089918093F10076
:104B000089918093F10089918093F100899180933C
:104B1000F10089918093F10089918093F10089914E
:104B20008093F10089918093F10089918093F10045
:104B300089918093F10089918093F100899180930C
:104B4000F10089918093F10089918093F10089911E
:104B50008093F10089918093F10089918093F10015
:104B600089918093F10089918093F10089918093DC
:104B7000F10089918093F10089918093F1008991EE
:104B80008093F10089918093F10089918093F100E5
:104B900089918093F10089918093F10089918093AC
:104BA000F10089918093F10089918093F1008991BE
:104BB0008093F10089918093F10089918093F100B5
:104BC00089918093F10089918093F100899180937C
:104BD000F10089918093F10089918093F10089918E
:104BE0008093F10089918093F10089918093F10085
:104BF00089918093F10089918093F100899180934C
:104C0000F10089918093F10089918093F10089915D
:104C10008093F10089918093F10089918093F10054
:104C200089918093F10089918093F100899180931B
:104C3000F10089918093F10089918093F10089912D
:104C40008093F10089918093F10089918093F10024
:104C50008091E80085FD02C05093E800621B710955
:104C6000A093D5033FBF04C0B4E040E45AE3A5E0FD
:104C70006115710509F0F9CE80E001C08FEFDF9179
:104C8000CF9108959FB7F8948091D503882341F080
:104C900084E08093E9008AE38093E8001092D503D2
:104CA0009FBF08956091A6037091A7038091A80308
:104CB0009091A90308958091AA0308958091AB0370
:104CC00008958091AC0308958091D4030895282F0E
:104CD0009FB7F8948091D303882339F082E08093C2
:104CE000E9008091E80085FD03C09FBF8FEF089524
:104CF00081EA8093F10080E28093F1001092F1004C
:104D00001092F1001092F1001092F10081E0809376
:104D1000F1001092F1002093F1008AE38093E80003
:104D20009FBF80E008951F920F920FB60F9211243B
:104D30008F939F938091E1001092E100982F83FF61
:104D400011C01092E90081E08093EB001092EC001A
:104D500082E18093ED0088E08093F0001092D3030D
:104D60001092D40392FF13C08091D303882379F06B
:104D70008091D503882359F081508093D5038823EF
:104D800031F484E08093E9008AE38093E8009F9106
:104D90008F910F900FBE0F901F9018951F920F923A
:104DA0000FB60F9211240F931F932F933F934F939E
:104DB0005F936F937F938F939F93AF93BF93EF9383
:104DC000FF931092E9008091E80083FF3CC140917D
:104DD000F1003091F1008091F100682F70E0209196
:104DE000F100922F80E0682B792B8091F100A82FA1
:104DF000B0E02091F100922F80E0A82BB92B109108
:104E0000F1000091F10082EF8093E800363009F064
:104E10005AC020E831E0A90145505040F9013797C8
:104E2000859194918617970701F5FA0185919491E0
:104E30008A179B07D1F49A012E5F3F4FF9016591C4
:104E400074912E5F3F4FF9014491212F30E0902F54
:104E500080E0282B392B2F3F310519F010F02FEF70
:104E600030E0241758F4422F09C0295F3F4F495FB3
:104E70005F4FF1E02A3A3F0789F6E5C05EEF809187
:104E8000E800282F30E0C90185709070892BB9F3B4
:104E900022FDDCC0342F413108F030E1232FCB015B
:104EA00006C0FC010196E491E093F1002150222319
:104EB000C1F7630F711D431B5093E8004423F9F6BB
:104EC0003031E9F2C3C0353061F48EEF8093E800F1
:104ED0008091E80080FFFCCF862F80688093E300FC
:104EE000B5C0393051F5442309F0ADC06093D30308
:104EF0001092D4031092D5038EEF8093E80083EADA
:104F000091E021E02093E900FC010196E491E09317
:104F1000EB00EE2369F0AC014F5F5F4FFC01849121
:104F20008093EC00CA010196FA0134913093ED00B0
:104F30002F5F253039F78EE181C0383061F4403879
:104F400009F081C08091E80080FFFCCF8091D303FD
:104F50008093F10050C0313289F4413A09F073C0B6
:104F60008091E80080FFFCCFE6EAF3E08191809336
:104F7000F10083E0ED3AF807C9F73DC03032A1F403
:104F8000413209F060C08091E80082FFFCCFE6EA80
:104F9000F3E08091F100819383E0ED3AF807C9F7DF
:104FA0008BEF8093E80027C0323251F4413209F090
:104FB0004AC06093D4038091E80080FFFCCF1BC0FF
:104FC0003323E9F48091E80080FFFCCF423811F0F0
:104FD00080E00DC0A093E9008091EB0090E025E017
:104FE000969587952A95E1F781701092E900809354
:104FF000F1001092F1008EEF8093E80027C031306D
:1050000011F0333001F54230F1F4672BE1F42A2F2F
:105010002F77822F81508430B0F48EEF8093E80098
:105020002093E900333079F089E18093EB0081E04F
:1050300090E002C0880F991F2A95E2F78093EA005A
:105040001092EA0003C081E28093EB00FF91EF91A0
:10505000BF91AF919F918F917F916F915F914F9190
:105060003F912F911F910F910F900FBE0F901F90A6
:10507000189587E880937A000895982F9F7190641F
:1050800090937C00807280937B0080917A00806492
:1050900080937A0080917A0086FDFCCF2091780081
:1050A00030917900C9010895E7EEF5E0119287E0AB
:1050B000EF3DF807D9F708959C0197FD37C077FDBC
:1050C00035C08435910594F5603371057CF5CB01CD
:1050D00073E0959587957A95E1F76770452B99F080
:1050E000E4E58E9FF0011124E20FF31FE951FA4F1E
:1050F00081E090E002C0880F991F6A95E2F7208155
:10510000282B20830895E4E58E9FF0011124E20FFF
:10511000F31FE951FA4F81E090E002C0880F991F18
:105120006A95E2F7809520812823208308952F92A5
:105130003F924F925F926F927F928F929F92AF9227
:10514000BF92CF92DF92EF92FF920F931F93DF9364
:10515000CF93CDB7DEB72E970FB6F894DEBF0FBE54
:10516000CDBF7C016B014A0139011C870B87841775
:105170009507F9F45B0110C0C701B5014B855C854B
:105180000E945C28C614D70424F40894A11CB11C06
:1051900003C00894A108B108C614D7042CF46A14FB
:1051A0007B040CF4FDC0E8CFA614B7040CF4F8C0DF
:1051B000E3CF62177307F9F45C0110C0C501B601B3
:1051C0004B855C850E945C28E814F90424F408945B
:1051D000A11CB11C03C00894A108B108E814F9048B
:1051E0002CF48A149B040CF4DBC0E8CFA814B90497
:1051F0000CF4D6C0E3CF4817590724F447017A01CD
:105200003B016901B4016E197F09882777FD8095FC
:10521000982F0E94A82F6F83788789879A87B30178
:105220006C197D09882777FD8095982F0E94A82FFB
:105230006B837C838D839E832F81388549855A8536
:105240000E940D2F1B012C0120E030E040E050E0D7
:105250000E94123187FF04C057FA509457F85094B7
:10526000DA82C9820F2EF0E0AF2EF0E0BF2EF0E020
:10527000CF2EF0E0DF2EF02D7FC0C70169817A814B
:105280004B855C850E945C28C601B501A201910195
:105290000E947A2E3BC0C70169817A814B855C856B
:1052A0000E945C281E861D866B817C818D819E817B
:1052B00020E030E040E050E00E941231181624F463
:1052C00021E030E03E872D8700E010E06B817C819B
:1052D0008D819E8120E030E040E050E00E94062F6A
:1052E000882314F401E010E08D859E85801B910BCE
:1052F000E981FA81E80FF91FFA83E983C601B50154
:1053000020E030E040E85FE30E94792E5B016C0111
:1053100020E030E040E05FE30E9412318823CCF0CF
:105320006B817C818D819E8120E030E040E050E007
:105330000E94123118163CF429813A8162167306D4
:105340000CF0A9CF06C089819A81861597050CF0CB
:10535000A2CF6F81788589859A8520E030E040E092
:1053600050E00E941231181624F40894E11CF11C3C
:1053700003C00894E108F1086F81788589859A85D2
:1053800020E030E040E050E00E941231181624F492
:105390008E149F042CF071CFE814F9040CF06DCF3B
:1053A0002E960FB6F894DEBF0FBECDBFCF91DF9122
:1053B0001F910F91FF90EF90DF90CF90BF90AF9033
:1053C0009F908F907F906F905F904F903F902F9025
:1053D00008954F925F926F927F928F929F92AF92B9
:1053E000BF92CF92DF92EF92FF920F931F93CF93D2
:1053F000DF933B01490125E0429FA0011124A2EA6D
:10540000EA2EA1E0FA2EE40EF51E8C01F1E04F2EFB
:10541000512CE7EAAE2EE1E0BE2EA40EB51EF70138
:1054200084918114910409F48095C0E0D0E0C82EE5
:10543000DD24BE01660D771DA2010C2E02C0440FB3
:10544000551F0A94E2F74C215D210C2E02C05595A0
:1054500047950A94E2F7C8010E945C282196C8305B
:10546000D10539F70894E11CF11C0F5F1F4FEA14B6
:10547000FB04A9F6DF91CF911F910F91FF90EF9060
:10548000DF90CF90BF90AF909F908F907F906F9064
:105490005F904F900895CF92DF92EF92FF920F931B
:1054A0001F93CF93DF936B017A01E901082F10E07E
:1054B00008C0802F90E0B6019E010E94E9290B5F91
:1054C0001F5FF701E10FF11D4081442391F7DF9148
:1054D000CF911F910F91FF90EF90DF90CF900895A3
:1054E000CF93DF9380E060E00E94E52AC7EED5E02D
:1054F00081E069910E94832A87E0CF3DD807C1F7F8
:10550000DF91CF91089595B18295880F807E9F7D20
:10551000982B95B95F9827E030E070E08F98CB0129
:10552000022E02C0959587950A94E2F780FF02C08B
:105530002E9A01C02E988F9A215030408FEF2F3F26
:10554000380761F75F9A08951F93182F579A249A86
:10555000259A269A879A2C985F9A2C9A80E061E285
:105560000E94832A106880E0612F0E94832A80E0D5
:1055700064E00E94832A80E063E10E94832A80E045
:105580006CE00E94832A80E060E20E94832A80E02F
:105590006CE00E94832A80E060E40E94832A80E01D
:1055A00060E80E94832A1F910895CF93DF93C0E0A3
:1055B000D0E081E060E00E94832A219681E0C83F2C
:1055C000D807B9F7DF91CF9108951F93182F606422
:1055D00080E00E94832A106880E0612F0E94832A65
:1055E0001F910895A1E1B0E0E8EFFAE20C943132A6
:1055F0003C017F876E876A01FC01178216828381D6
:1056000081FD03C06FEF7FEF6FC39E012F5F3F4FA0
:10561000398B288BF3012381EE85FF8523FD85914E
:1056200023FF8191FF87EE87882309F45AC38532CF
:1056300051F4EE85FF8523FD859123FF8191FF873E
:10564000EE87853229F490E0B3010E94EC33E2CF7B
:10565000982F10E0882499241032B0F49B3269F01E
:105660009C3228F4903251F0933271F40BC09D3289
:1056700039F0903349F4116028C01260146025C0DD
:10568000186023C0106121C017FD2AC0892F8053E4
:105690008A3078F416FF06C0FAE09F9E902C112401
:1056A000980E13C03AE0839E802C1124880E10625D
:1056B0000CC09E3221F416FD14C3106406C09C3643
:1056C00011F4106802C0983659F4EE85FF8523FD69
:1056D000959123FF9191FF87EE87992309F0BCCF25
:1056E000892F8554833020F4812F8061905E07C01C
:1056F000892F8556833008F09FC1812F8F7E86FDCC
:1057000002C076E0972E6FE3F62EF822953619F454
:10571000F0E4FF2A07C0963619F420E8F22A02C006
:1057200091109A94F7FE0AC03BE3391518F45CE334
:10573000B52E02C0B92CB39427E009C047E0491543
:1057400020F4BB2447E0942EF7CF292DBB24C601BB
:1057500004969D878C87F601608171818281938197
:10576000AE014F5F5F4F0B2D0E94DD326C0109814E
:10577000202E332400FF04C003FD02C01DE209C037
:10578000F1FE02C01BE205C0F2FC02C010E001C045
:1057900010E2C1018C709070892BB9F1112311F4C2
:1057A00083E001C084E0881510F088240AC0881ABC
:1057B000F3FC07C080E290E0B3010E94EC338A94CE
:1057C000C9F7112329F0812F90E0B3010E94EC3337
:1057D00023FE03C002E214E00EC006E214E00BC098
:1057E000E114F10409F0805290E0B3010E94EC331F
:1057F0000F5F1F4F05C0EF2CFF24F0E1EF22FF24C5
:10580000F8018491882361F714C1F7FE12C0BC0C23
:1058100024FE04C08A81813309F4BA941B141CF05D
:10582000BB24B3942DC0F8E0FB1550F538E0B32E3F
:1058300027C0F6FC25C0892D90E08C159D054CF005
:105840002CEFC2162FEFD20624F030E8F32A01C065
:105850009A94992049F0E2E0F0E0EC0FFD1FE90D89
:10586000F11D80818033A1F3F7FE0AC0B92CB394F7
:10587000892D90E0C816D90614F0992401C09C180F
:10588000F7FC03C025E030E009C01C141D041CF027
:1058900021E030E003C096012F5F3F4F112311F04C
:1058A0002F5F3F4F992029F0892D90E00196280F16
:1058B000391F882D90E02817390714F0882401C07B
:1058C000821A4F2C5524C20189709070892B39F0AF
:1058D00008C080E290E0B3010E94EC338A948820F3
:1058E000C1F7112329F0812F90E0B3010E94EC331E
:1058F00043FE07C008C080E390E0B3010E94EC3390
:105900008A948820C1F7F7FE46C08601D7FE02C000
:1059100000E010E076010894E11CF11CE01AF10AA5
:1059200041E050E04C0F5D1FE40EF51E26014B18C0
:105930005108892D90E0AA24BB24A81AB90A5FEF68
:105940000F3F150729F48EE290E0B3010E94EC337B
:10595000C016D10634F0401651061CF4F7018081C0
:1059600001C080E3015010400894E11CF11C0A15AD
:105970001B052CF090E0B3010E94EC33E0CF0C1536
:105980001D0539F49A81963318F4953311F424FEE9
:1059900081E390E04BC08A81813309F00F7E90E073
:1059A000B3010E94EC339920A1F08EE290E0B301A4
:1059B0000E94EC3312E0E1E0F0E0EC0FFD1FE10F9C
:1059C000F11D1F5F808190E0B3010E94EC339A9437
:1059D00091F744FC03C085E690E002C085E490E0C6
:1059E000B3010E94EC33D7FC05C0C114D10441F4CB
:1059F00004FF06C0D094C194D108D3948DE201C0B5
:105A00008BE290E0B3010E94EC3380E305C08F5F2E
:105A100026EF3FEFC20ED31E3AE0C316D104BCF707
:105A200090E0B3010E94EC33C601C096B3010E941E
:105A3000EC33CC84DD8452C1933631F0933799F046
:105A4000933509F059C023C0F601808189835E0136
:105A50000894A11CB11C22E030E0C20ED31E21E04C
:105A6000E22EF12C12C0F601A080B18016FD03C019
:105A70006FEF7FEF02C0692D70E022E030E0C20ED0
:105A8000D31EC5010E94C0337C011F7713C0F601ED
:105A9000A080B18016FD03C06FEF7FEF02C0692DBB
:105AA00070E022E030E0C20ED31EC5010E94B53383
:105AB0007C01106813FF07C01BC080E290E0B301B7
:105AC0000E94EC338A94882D90E0E816F906A8F33A
:105AD0000FC0F50117FD859117FF81915F0190E0DF
